{
  "contractName": "ICOToken",
  "abi": [
    {
      "inputs": [
        {
          "internalType": "contract Token20",
          "name": "_token20",
          "type": "address"
        }
      ],
      "stateMutability": "nonpayable",
      "type": "constructor"
    },
    {
      "anonymous": false,
      "inputs": [
        {
          "indexed": true,
          "internalType": "address",
          "name": "_buyer",
          "type": "address"
        },
        {
          "indexed": false,
          "internalType": "uint256",
          "name": "_tokenAmount",
          "type": "uint256"
        }
      ],
      "name": "Sell",
      "type": "event"
    },
    {
      "inputs": [],
      "name": "contractInstance",
      "outputs": [
        {
          "internalType": "contract Token20",
          "name": "",
          "type": "address"
        }
      ],
      "stateMutability": "view",
      "type": "function",
      "constant": true
    },
    {
      "inputs": [],
      "name": "tokenPrice",
      "outputs": [
        {
          "internalType": "uint256",
          "name": "",
          "type": "uint256"
        }
      ],
      "stateMutability": "view",
      "type": "function",
      "constant": true
    },
    {
      "inputs": [],
      "name": "tokenSold",
      "outputs": [
        {
          "internalType": "uint256",
          "name": "",
          "type": "uint256"
        }
      ],
      "stateMutability": "view",
      "type": "function",
      "constant": true
    },
    {
      "inputs": [
        {
          "internalType": "uint256",
          "name": "_tokenAmount",
          "type": "uint256"
        }
      ],
      "name": "BuyToken",
      "outputs": [],
      "stateMutability": "payable",
      "type": "function",
      "payable": true
    },
    {
      "inputs": [],
      "name": "transfers",
      "outputs": [],
      "stateMutability": "nonpayable",
      "type": "function"
    }
  ],
  "bytecode": "0x6080604052670de0b6b3a764000060035534801561001c57600080fd5b506040516106be3803806106be8339818101604052602081101561003f57600080fd5b8101908080519060200190929190505050336000806101000a81548173ffffffffffffffffffffffffffffffffffffffff021916908373ffffffffffffffffffffffffffffffffffffffff16021790555080600160006101000a81548173ffffffffffffffffffffffffffffffffffffffff021916908373ffffffffffffffffffffffffffffffffffffffff160217905550506105dd806100e16000396000f3fe60806040526004361061004a5760003560e01c806329fa6a6f1461004f578063519ee19e146100a65780637ff9b596146100d1578063ab5e28c5146100fc578063fcb0368c14610113575b600080fd5b34801561005b57600080fd5b50610064610141565b604051808273ffffffffffffffffffffffffffffffffffffffff1673ffffffffffffffffffffffffffffffffffffffff16815260200191505060405180910390f35b3480156100b257600080fd5b506100bb610167565b6040518082815260200191505060405180910390f35b3480156100dd57600080fd5b506100e661016d565b6040518082815260200191505060405180910390f35b34801561010857600080fd5b50610111610173565b005b61013f6004803603602081101561012957600080fd5b810190808035906020019092919050505061041d565b005b600160009054906101000a900473ffffffffffffffffffffffffffffffffffffffff1681565b60025481565b60035481565b6000809054906101000a900473ffffffffffffffffffffffffffffffffffffffff1673ffffffffffffffffffffffffffffffffffffffff163373ffffffffffffffffffffffffffffffffffffffff16146101cc57600080fd5b600160009054906101000a900473ffffffffffffffffffffffffffffffffffffffff1673ffffffffffffffffffffffffffffffffffffffff1663a9059cbb6000809054906101000a900473ffffffffffffffffffffffffffffffffffffffff16600160009054906101000a900473ffffffffffffffffffffffffffffffffffffffff1673ffffffffffffffffffffffffffffffffffffffff166370a08231306040518263ffffffff1660e01b8152600401808273ffffffffffffffffffffffffffffffffffffffff1673ffffffffffffffffffffffffffffffffffffffff16815260200191505060206040518083038186803b1580156102cb57600080fd5b505afa1580156102df573d6000803e3d6000fd5b505050506040513d60208110156102f557600080fd5b81019080805190602001909291905050506040518363ffffffff1660e01b8152600401808373ffffffffffffffffffffffffffffffffffffffff1673ffffffffffffffffffffffffffffffffffffffff16815260200182815260200192505050602060405180830381600087803b15801561036f57600080fd5b505af1158015610383573d6000803e3d6000fd5b505050506040513d602081101561039957600080fd5b81019080805190602001909291905050506103b357600080fd5b6000809054906101000a900473ffffffffffffffffffffffffffffffffffffffff1673ffffffffffffffffffffffffffffffffffffffff166108fc479081150290604051600060405180830381858888f1935050505015801561041a573d6000803e3d6000fd5b50565b6104296003548261057b565b341461043457600080fd5b80600160009054906101000a900473ffffffffffffffffffffffffffffffffffffffff1673ffffffffffffffffffffffffffffffffffffffff166370a08231306040518263ffffffff1660e01b8152600401808273ffffffffffffffffffffffffffffffffffffffff1673ffffffffffffffffffffffffffffffffffffffff16815260200191505060206040518083038186803b1580156104d457600080fd5b505afa1580156104e8573d6000803e3d6000fd5b505050506040513d60208110156104fe57600080fd5b8101908080519060200190929190505050101561051a57600080fd5b806002600082825401925050819055503373ffffffffffffffffffffffffffffffffffffffff167f5e5e995ce3133561afceaa51a9a154d5db228cd7525d34df5185582c18d3df09826040518082815260200191505060405180910390a250565b600080821480610598575082828385029250828161059557fe5b04145b6105a157600080fd5b9291505056fea26469706673582212206eb5b3e4b638260c60ea1011b796ea01eb8b9204d018fd87e2d03fa6e6c0033664736f6c63430006080033",
  "immutableReferences": {},
  "source": "pragma solidity 0.6.8;\n\nimport \"./Token20.sol\";\ncontract ICOToken\n{\n   \n   address payable internal owner;\n   Token20 public contractInstance;\n   uint public tokenSold;\n   uint public tokenPrice = 1000000000000000000;\n\n   constructor(Token20 _token20) public\n   {\n\n   \t\towner = payable(msg.sender);\n   \t\tcontractInstance = _token20;\n\n   }\n\n    event Sell(address indexed _buyer , uint _tokenAmount);\n\n    function multiply(uint x, uint y) internal pure returns (uint z) \n    {\n        require(y == 0 || (z = x * y) / y == x);\n    }\n\n    function BuyToken(uint _tokenAmount) payable public\n    {\n \t   require(msg.value == multiply(tokenPrice,_tokenAmount));\n \t   require(contractInstance.balanceOf(address(this))>=_tokenAmount);\n \t   tokenSold += _tokenAmount;\n \t   emit Sell(msg.sender,_tokenAmount);\n       \n    }\n\n    function transfers() public\n    {\n    \trequire(msg.sender == owner);\n      require(contractInstance.transfer(owner,contractInstance.balanceOf(address(this))));\n    \towner.transfer(address(this).balance);\n\n    }\n\n    \n\n\n\n\n\n    \n\n}",
  "sourcePath": "/home/kheng/Dapp_Code/Token20/contracts/ICOToken.sol",
  "compiler": {
    "name": "solc",
    "version": "0.6.8+commit.0bbfe453.Emscripten.clang"
  },
  "schemaVersion": "3.1.0",
  "updatedAt": "2020-05-18T17:09:03.984Z",
  "networkType": "ethereum",
  "devdoc": {
    "methods": {}
  },
  "userdoc": {
    "methods": {}
  }
}